###############################################################################
#
# IAR ELF Linker V8.20.2.14835/W32 for ARM                06/Apr/2018  16:05:44
# Copyright 2007-2017 IAR Systems AB.
#
#    Output file  =  
#        C:\Users\davin\Downloads\CE4053 phase 1
#        works\Micrium\Software\EvalBoards\TI\LM3S9B92-EVALBOT\IAR\uCOS-III-CE4053_PG\Flash\Exe\uCOS-III-Ex4.out
#    Map file     =  
#        C:\Users\davin\Downloads\CE4053 phase 1
#        works\Micrium\Software\EvalBoards\TI\LM3S9B92-EVALBOT\IAR\uCOS-III-CE4053_PG\Flash\List\uCOS-III-Ex4.map
#    Command line =  
#        -f C:\Users\davin\AppData\Local\Temp\EW647.tmp
#        ("C:\Users\davin\Downloads\CE4053 phase 1
#        works\Micrium\Software\EvalBoards\TI\LM3S9B92-EVALBOT\IAR\uCOS-III-CE4053_PG\Flash\Obj\adc.o"
#        "C:\Users\davin\Downloads\CE4053 phase 1
#        works\Micrium\Software\EvalBoards\TI\LM3S9B92-EVALBOT\IAR\uCOS-III-CE4053_PG\Flash\Obj\app.o"
#        "C:\Users\davin\Downloads\CE4053 phase 1
#        works\Micrium\Software\EvalBoards\TI\LM3S9B92-EVALBOT\IAR\uCOS-III-CE4053_PG\Flash\Obj\app_vect.o"
#        "C:\Users\davin\Downloads\CE4053 phase 1
#        works\Micrium\Software\EvalBoards\TI\LM3S9B92-EVALBOT\IAR\uCOS-III-CE4053_PG\Flash\Obj\bsp.o"
#        "C:\Users\davin\Downloads\CE4053 phase 1
#        works\Micrium\Software\EvalBoards\TI\LM3S9B92-EVALBOT\IAR\uCOS-III-CE4053_PG\Flash\Obj\bsp_dac.o"
#        "C:\Users\davin\Downloads\CE4053 phase 1
#        works\Micrium\Software\EvalBoards\TI\LM3S9B92-EVALBOT\IAR\uCOS-III-CE4053_PG\Flash\Obj\bsp_display.o"
#        "C:\Users\davin\Downloads\CE4053 phase 1
#        works\Micrium\Software\EvalBoards\TI\LM3S9B92-EVALBOT\IAR\uCOS-III-CE4053_PG\Flash\Obj\bsp_int.o"
#        "C:\Users\davin\Downloads\CE4053 phase 1
#        works\Micrium\Software\EvalBoards\TI\LM3S9B92-EVALBOT\IAR\uCOS-III-CE4053_PG\Flash\Obj\bsp_io.o"
#        "C:\Users\davin\Downloads\CE4053 phase 1
#        works\Micrium\Software\EvalBoards\TI\LM3S9B92-EVALBOT\IAR\uCOS-III-CE4053_PG\Flash\Obj\bsp_motor.o"
#        "C:\Users\davin\Downloads\CE4053 phase 1
#        works\Micrium\Software\EvalBoards\TI\LM3S9B92-EVALBOT\IAR\uCOS-III-CE4053_PG\Flash\Obj\bsp_sensors.o"
#        "C:\Users\davin\Downloads\CE4053 phase 1
#        works\Micrium\Software\EvalBoards\TI\LM3S9B92-EVALBOT\IAR\uCOS-III-CE4053_PG\Flash\Obj\can.o"
#        "C:\Users\davin\Downloads\CE4053 phase 1
#        works\Micrium\Software\EvalBoards\TI\LM3S9B92-EVALBOT\IAR\uCOS-III-CE4053_PG\Flash\Obj\comp.o"
#        "C:\Users\davin\Downloads\CE4053 phase 1
#        works\Micrium\Software\EvalBoards\TI\LM3S9B92-EVALBOT\IAR\uCOS-III-CE4053_PG\Flash\Obj\cpu_.o"
#        "C:\Users\davin\Downloads\CE4053 phase 1
#        works\Micrium\Software\EvalBoards\TI\LM3S9B92-EVALBOT\IAR\uCOS-III-CE4053_PG\Flash\Obj\cpu_a.o"
#        "C:\Users\davin\Downloads\CE4053 phase 1
#        works\Micrium\Software\EvalBoards\TI\LM3S9B92-EVALBOT\IAR\uCOS-III-CE4053_PG\Flash\Obj\cpu_bsp.o"
#        "C:\Users\davin\Downloads\CE4053 phase 1
#        works\Micrium\Software\EvalBoards\TI\LM3S9B92-EVALBOT\IAR\uCOS-III-CE4053_PG\Flash\Obj\cpu_c.o"
#        "C:\Users\davin\Downloads\CE4053 phase 1
#        works\Micrium\Software\EvalBoards\TI\LM3S9B92-EVALBOT\IAR\uCOS-III-CE4053_PG\Flash\Obj\cpu_core.o"
#        "C:\Users\davin\Downloads\CE4053 phase 1
#        works\Micrium\Software\EvalBoards\TI\LM3S9B92-EVALBOT\IAR\uCOS-III-CE4053_PG\Flash\Obj\epi.o"
#        "C:\Users\davin\Downloads\CE4053 phase 1
#        works\Micrium\Software\EvalBoards\TI\LM3S9B92-EVALBOT\IAR\uCOS-III-CE4053_PG\Flash\Obj\ethernet.o"
#        "C:\Users\davin\Downloads\CE4053 phase 1
#        works\Micrium\Software\EvalBoards\TI\LM3S9B92-EVALBOT\IAR\uCOS-III-CE4053_PG\Flash\Obj\fatfs.o"
#        "C:\Users\davin\Downloads\CE4053 phase 1
#        works\Micrium\Software\EvalBoards\TI\LM3S9B92-EVALBOT\IAR\uCOS-III-CE4053_PG\Flash\Obj\flash.o"
#        "C:\Users\davin\Downloads\CE4053 phase 1
#        works\Micrium\Software\EvalBoards\TI\LM3S9B92-EVALBOT\IAR\uCOS-III-CE4053_PG\Flash\Obj\gpio.o"
#        "C:\Users\davin\Downloads\CE4053 phase 1
#        works\Micrium\Software\EvalBoards\TI\LM3S9B92-EVALBOT\IAR\uCOS-III-CE4053_PG\Flash\Obj\hibernate.o"
#        "C:\Users\davin\Downloads\CE4053 phase 1
#        works\Micrium\Software\EvalBoards\TI\LM3S9B92-EVALBOT\IAR\uCOS-III-CE4053_PG\Flash\Obj\i2c.o"
#        "C:\Users\davin\Downloads\CE4053 phase 1
#        works\Micrium\Software\EvalBoards\TI\LM3S9B92-EVALBOT\IAR\uCOS-III-CE4053_PG\Flash\Obj\i2s.o"
#        "C:\Users\davin\Downloads\CE4053 phase 1
#        works\Micrium\Software\EvalBoards\TI\LM3S9B92-EVALBOT\IAR\uCOS-III-CE4053_PG\Flash\Obj\interrupt.o"
#        "C:\Users\davin\Downloads\CE4053 phase 1
#        works\Micrium\Software\EvalBoards\TI\LM3S9B92-EVALBOT\IAR\uCOS-III-CE4053_PG\Flash\Obj\lib_ascii.o"
#        "C:\Users\davin\Downloads\CE4053 phase 1
#        works\Micrium\Software\EvalBoards\TI\LM3S9B92-EVALBOT\IAR\uCOS-III-CE4053_PG\Flash\Obj\lib_math.o"
#        "C:\Users\davin\Downloads\CE4053 phase 1
#        works\Micrium\Software\EvalBoards\TI\LM3S9B92-EVALBOT\IAR\uCOS-III-CE4053_PG\Flash\Obj\lib_mem.o"
#        "C:\Users\davin\Downloads\CE4053 phase 1
#        works\Micrium\Software\EvalBoards\TI\LM3S9B92-EVALBOT\IAR\uCOS-III-CE4053_PG\Flash\Obj\lib_str.o"
#        "C:\Users\davin\Downloads\CE4053 phase 1
#        works\Micrium\Software\EvalBoards\TI\LM3S9B92-EVALBOT\IAR\uCOS-III-CE4053_PG\Flash\Obj\microsd.o"
#        "C:\Users\davin\Downloads\CE4053 phase 1
#        works\Micrium\Software\EvalBoards\TI\LM3S9B92-EVALBOT\IAR\uCOS-III-CE4053_PG\Flash\Obj\mpu.o"
#        "C:\Users\davin\Downloads\CE4053 phase 1
#        works\Micrium\Software\EvalBoards\TI\LM3S9B92-EVALBOT\IAR\uCOS-III-CE4053_PG\Flash\Obj\os_app_hooks.o"
#        "C:\Users\davin\Downloads\CE4053 phase 1
#        works\Micrium\Software\EvalBoards\TI\LM3S9B92-EVALBOT\IAR\uCOS-III-CE4053_PG\Flash\Obj\os_cfg_app.o"
#        "C:\Users\davin\Downloads\CE4053 phase 1
#        works\Micrium\Software\EvalBoards\TI\LM3S9B92-EVALBOT\IAR\uCOS-III-CE4053_PG\Flash\Obj\os_core.o"
#        "C:\Users\davin\Downloads\CE4053 phase 1
#        works\Micrium\Software\EvalBoards\TI\LM3S9B92-EVALBOT\IAR\uCOS-III-CE4053_PG\Flash\Obj\os_cpu_a.o"
#        "C:\Users\davin\Downloads\CE4053 phase 1
#        works\Micrium\Software\EvalBoards\TI\LM3S9B92-EVALBOT\IAR\uCOS-III-CE4053_PG\Flash\Obj\os_cpu_c.o"
#        "C:\Users\davin\Downloads\CE4053 phase 1
#        works\Micrium\Software\EvalBoards\TI\LM3S9B92-EVALBOT\IAR\uCOS-III-CE4053_PG\Flash\Obj\os_dbg.o"
#        "C:\Users\davin\Downloads\CE4053 phase 1
#        works\Micrium\Software\EvalBoards\TI\LM3S9B92-EVALBOT\IAR\uCOS-III-CE4053_PG\Flash\Obj\os_flag.o"
#        "C:\Users\davin\Downloads\CE4053 phase 1
#        works\Micrium\Software\EvalBoards\TI\LM3S9B92-EVALBOT\IAR\uCOS-III-CE4053_PG\Flash\Obj\os_int.o"
#        "C:\Users\davin\Downloads\CE4053 phase 1
#        works\Micrium\Software\EvalBoards\TI\LM3S9B92-EVALBOT\IAR\uCOS-III-CE4053_PG\Flash\Obj\os_mem.o"
#        "C:\Users\davin\Downloads\CE4053 phase 1
#        works\Micrium\Software\EvalBoards\TI\LM3S9B92-EVALBOT\IAR\uCOS-III-CE4053_PG\Flash\Obj\os_msg.o"
#        "C:\Users\davin\Downloads\CE4053 phase 1
#        works\Micrium\Software\EvalBoards\TI\LM3S9B92-EVALBOT\IAR\uCOS-III-CE4053_PG\Flash\Obj\os_mutex.o"
#        "C:\Users\davin\Downloads\CE4053 phase 1
#        works\Micrium\Software\EvalBoards\TI\LM3S9B92-EVALBOT\IAR\uCOS-III-CE4053_PG\Flash\Obj\os_pend_multi.o"
#        "C:\Users\davin\Downloads\CE4053 phase 1
#        works\Micrium\Software\EvalBoards\TI\LM3S9B92-EVALBOT\IAR\uCOS-III-CE4053_PG\Flash\Obj\os_prio.o"
#        "C:\Users\davin\Downloads\CE4053 phase 1
#        works\Micrium\Software\EvalBoards\TI\LM3S9B92-EVALBOT\IAR\uCOS-III-CE4053_PG\Flash\Obj\os_q.o"
#        "C:\Users\davin\Downloads\CE4053 phase 1
#        works\Micrium\Software\EvalBoards\TI\LM3S9B92-EVALBOT\IAR\uCOS-III-CE4053_PG\Flash\Obj\OS_RecTask.o"
#        "C:\Users\davin\Downloads\CE4053 phase 1
#        works\Micrium\Software\EvalBoards\TI\LM3S9B92-EVALBOT\IAR\uCOS-III-CE4053_PG\Flash\Obj\OS_RecTaskUtil.o"
#        "C:\Users\davin\Downloads\CE4053 phase 1
#        works\Micrium\Software\EvalBoards\TI\LM3S9B92-EVALBOT\IAR\uCOS-III-CE4053_PG\Flash\Obj\os_sem.o"
#        "C:\Users\davin\Downloads\CE4053 phase 1
#        works\Micrium\Software\EvalBoards\TI\LM3S9B92-EVALBOT\IAR\uCOS-III-CE4053_PG\Flash\Obj\os_stat.o"
#        "C:\Users\davin\Downloads\CE4053 phase 1
#        works\Micrium\Software\EvalBoards\TI\LM3S9B92-EVALBOT\IAR\uCOS-III-CE4053_PG\Flash\Obj\os_task.o"
#        "C:\Users\davin\Downloads\CE4053 phase 1
#        works\Micrium\Software\EvalBoards\TI\LM3S9B92-EVALBOT\IAR\uCOS-III-CE4053_PG\Flash\Obj\OS_Task_Scheduling.o"
#        "C:\Users\davin\Downloads\CE4053 phase 1
#        works\Micrium\Software\EvalBoards\TI\LM3S9B92-EVALBOT\IAR\uCOS-III-CE4053_PG\Flash\Obj\os_tick.o"
#        "C:\Users\davin\Downloads\CE4053 phase 1
#        works\Micrium\Software\EvalBoards\TI\LM3S9B92-EVALBOT\IAR\uCOS-III-CE4053_PG\Flash\Obj\os_time.o"
#        "C:\Users\davin\Downloads\CE4053 phase 1
#        works\Micrium\Software\EvalBoards\TI\LM3S9B92-EVALBOT\IAR\uCOS-III-CE4053_PG\Flash\Obj\os_tmr.o"
#        "C:\Users\davin\Downloads\CE4053 phase 1
#        works\Micrium\Software\EvalBoards\TI\LM3S9B92-EVALBOT\IAR\uCOS-III-CE4053_PG\Flash\Obj\os_var.o"
#        "C:\Users\davin\Downloads\CE4053 phase 1
#        works\Micrium\Software\EvalBoards\TI\LM3S9B92-EVALBOT\IAR\uCOS-III-CE4053_PG\Flash\Obj\pwm.o"
#        "C:\Users\davin\Downloads\CE4053 phase 1
#        works\Micrium\Software\EvalBoards\TI\LM3S9B92-EVALBOT\IAR\uCOS-III-CE4053_PG\Flash\Obj\qei.o"
#        "C:\Users\davin\Downloads\CE4053 phase 1
#        works\Micrium\Software\EvalBoards\TI\LM3S9B92-EVALBOT\IAR\uCOS-III-CE4053_PG\Flash\Obj\ssi.o"
#        "C:\Users\davin\Downloads\CE4053 phase 1
#        works\Micrium\Software\EvalBoards\TI\LM3S9B92-EVALBOT\IAR\uCOS-III-CE4053_PG\Flash\Obj\sysctl.o"
#        "C:\Users\davin\Downloads\CE4053 phase 1
#        works\Micrium\Software\EvalBoards\TI\LM3S9B92-EVALBOT\IAR\uCOS-III-CE4053_PG\Flash\Obj\systick.o"
#        "C:\Users\davin\Downloads\CE4053 phase 1
#        works\Micrium\Software\EvalBoards\TI\LM3S9B92-EVALBOT\IAR\uCOS-III-CE4053_PG\Flash\Obj\timer.o"
#        "C:\Users\davin\Downloads\CE4053 phase 1
#        works\Micrium\Software\EvalBoards\TI\LM3S9B92-EVALBOT\IAR\uCOS-III-CE4053_PG\Flash\Obj\uart.o"
#        "C:\Users\davin\Downloads\CE4053 phase 1
#        works\Micrium\Software\EvalBoards\TI\LM3S9B92-EVALBOT\IAR\uCOS-III-CE4053_PG\Flash\Obj\udma.o"
#        "C:\Users\davin\Downloads\CE4053 phase 1
#        works\Micrium\Software\EvalBoards\TI\LM3S9B92-EVALBOT\IAR\uCOS-III-CE4053_PG\Flash\Obj\usb.o"
#        "C:\Users\davin\Downloads\CE4053 phase 1
#        works\Micrium\Software\EvalBoards\TI\LM3S9B92-EVALBOT\IAR\uCOS-III-CE4053_PG\Flash\Obj\watchdog.o"
#        --redirect _Printf=_PrintfFullNoMb --redirect _Scanf=_ScanfFullNoMb -o
#        "C:\Users\davin\Downloads\CE4053 phase 1
#        works\Micrium\Software\EvalBoards\TI\LM3S9B92-EVALBOT\IAR\uCOS-III-CE4053_PG\Flash\Exe\uCOS-III-Ex4.out"
#        --map "C:\Users\davin\Downloads\CE4053 phase 1
#        works\Micrium\Software\EvalBoards\TI\LM3S9B92-EVALBOT\IAR\uCOS-III-CE4053_PG\Flash\List\uCOS-III-Ex4.map"
#        --config "C:\Program Files (x86)\IAR Systems\Embedded Workbench
#        8.0\arm\config\linker\TexasInstruments\LM3S9B92.icf" --semihosting
#        --entry __iar_program_start --vfe --text_out locale)
#
###############################################################################

*******************************************************************************
*** RUNTIME MODEL ATTRIBUTES
***

CppFlavor       = *
__Heap_Handler  = NoFree
__SystemLibrary = DLib
__dlib_version  = 6


*******************************************************************************
*** HEAP SELECTION
***

The no free heap was selected because no calls to memory
deallocation functions were found in the application.


*******************************************************************************
*** PLACEMENT SUMMARY
***

"A0":  place at 0x00000000 { ro section .intvec };
"P1":  place in [from 0x00000000 to 0x0003ffff] { ro };
define block CSTACK with size = 2K, alignment = 8 { };
define block HEAP with size = 16K, alignment = 8 { };
"P2":  place in [from 0x20000000 to 0x2001ffff] {
          rw, block CSTACK, block HEAP };

  Section          Kind        Address    Size  Object
  -------          ----        -------    ----  ------
"A0":                                    0x11c
  .intvec          const    0x00000000   0x11c  app_vect.o [1]
                          - 0x0000011c   0x11c

"P1":                                   0x4fc2
  .text            ro code  0x0000011c   0x954  os_core.o [1]
  .text            ro code  0x00000a70   0x154  os_cpu_c.o [1]
  .text            ro code  0x00000bc4    0x94  os_prio.o [1]
  .text            ro code  0x00000c58   0x5cc  os_task.o [1]
  .text            ro code  0x00001224   0x448  os_tick.o [1]
  .text            ro code  0x0000166c   0x4bc  OS_RecTask.o [1]
  .text            ro code  0x00001b28   0x178  os_mem.o [1]
  .text            ro code  0x00001ca0    0xd0  os_msg.o [1]
  .text            ro code  0x00001d70    0x1c  os_mutex.o [1]
  .text            ro code  0x00001d8c    0x1c  os_q.o [1]
  .text            ro code  0x00001da8   0x2ec  os_tmr.o [1]
  .text            ro code  0x00002094   0x170  os_dbg.o [1]
  .text            ro code  0x00002204    0xac  os_cfg_app.o [1]
  CODE             ro code  0x000022b0    0x2a  cpu_a.o [1]
  .rodata          const    0x000022da     0x2  os_cfg_app.o [1]
  .text            ro code  0x000022dc   0x450  OS_Task_Scheduling.o [1]
  .text            ro code  0x0000272c   0x198  cpu_core.o [1]
  CODE             ro code  0x000028c4    0x84  os_cpu_a.o [1]
  .text            ro code  0x00002948    0x28  cpu_bsp.o [1]
  .text            ro code  0x00002970    0x58  os_time.o [1]
  .text            ro code  0x000029c8   0x7c0  OS_RecTaskUtil.o [1]
  .text            ro code  0x00003188    0x44  no_free_heap0.o [3]
  .text            ro code  0x000031cc    0x60  lib_mem.o [1]
  .text            ro code  0x0000322c    0xa8  bsp.o [1]
  .text            ro code  0x000032d4     0x6  ABImemclr4.o [5]
  .rodata          const    0x000032da     0x2  os_cfg_app.o [1]
  .text            ro code  0x000032dc    0x2c  xgetmemchunk.o [3]
  .text            ro code  0x00003308   0x488  sysctl.o [1]
  .text            ro code  0x00003790   0x256  bsp_int.o [1]
  .rodata          const    0x000039e6     0x2  os_cfg_app.o [1]
  .text            ro code  0x000039e8   0x268  bsp_display.o [1]
  .text            ro code  0x00003c50    0xa0  bsp_io.o [1]
  .text            ro code  0x00003cf0   0x154  bsp_sensors.o [1]
  .text            ro code  0x00003e44   0x1fc  bsp_motor.o [1]
  .text            ro code  0x00004040    0x32  ABImemset48.o [5]
  .rodata          const    0x00004072     0x2  os_dbg.o [1]
  .text            ro code  0x00004074   0x148  cpu_c.o [1]
  .text            ro code  0x000041bc    0xc6  i2c.o [1]
  .rodata          const    0x00004282     0x2  os_dbg.o [1]
  .text            ro code  0x00004284   0x360  gpio.o [1]
  .text            ro code  0x000045e4    0xf2  pwm.o [1]
  .rodata          const    0x000046d6     0x2  os_dbg.o [1]
  .text            ro code  0x000046d8   0x4d0  app.o [1]
  .text            ro code  0x00004ba8    0x66  ethernet.o [1]
  .rodata          const    0x00004c0e     0x2  os_dbg.o [1]
  .rodata          const    0x00004c10    0x5c  sysctl.o [1]
  .rodata          const    0x00004c6c    0x50  bsp_display.o [1]
  .rodata          const    0x00004cbc    0x48  gpio.o [1]
  .text            ro code  0x00004d04    0x40  zero_init3.o [5]
  .rodata          const    0x00004d44    0x34  os_dbg.o [1]
  .rodata          const    0x00004d78    0x30  os_dbg.o [1]
  .rodata          const    0x00004da8    0x30  os_dbg.o [1]
  .rodata          const    0x00004dd8    0x28  os_dbg.o [1]
  .rodata          const    0x00004e00    0x28  os_dbg.o [1]
  .text            ro code  0x00004e28    0x28  data_init.o [5]
  .iar.init_table  const    0x00004e50    0x10  - Linker created -
  .rodata          const    0x00004e60    0x20  os_dbg.o [1]
  .text            ro code  0x00004e80    0x1e  cmain.o [5]
  .text            ro code  0x00004e9e     0x4  low_level_init.o [3]
  .text            ro code  0x00004ea2     0x4  exit.o [3]
  .rodata          const    0x00004ea6     0x2  os_dbg.o [1]
  .text            ro code  0x00004ea8     0xa  cexit.o [5]
  .rodata          const    0x00004eb2     0x2  os_dbg.o [1]
  .text            ro code  0x00004eb4    0x14  exit.o [6]
  .rodata          const    0x00004ec8    0x1c  OS_RecTask.o [1]
  .rodata          const    0x00004ee4    0x18  OS_Task_Scheduling.o [1]
  .rodata          const    0x00004efc    0x18  os_tmr.o [1]
  .rodata          const    0x00004f14    0x14  os_core.o [1]
  .rodata          const    0x00004f28    0x14  OS_RecTaskUtil.o [1]
  .rodata          const    0x00004f3c    0x14  os_tick.o [1]
  .rodata          const    0x00004f50    0x10  app.o [1]
  .rodata          const    0x00004f60    0x10  app.o [1]
  .rodata          const    0x00004f70    0x10  app.o [1]
  .rodata          const    0x00004f80    0x10  OS_RecTaskUtil.o [1]
  .rodata          const    0x00004f90    0x10  OS_Task_Scheduling.o [1]
  .rodata          const    0x00004fa0     0xc  app.o [1]
  .rodata          const    0x00004fac     0xc  app.o [1]
  .rodata          const    0x00004fb8     0xc  app.o [1]
  .rodata          const    0x00004fc4     0xc  os_core.o [1]
  .rodata          const    0x00004fd0     0xc  sysctl.o [1]
  .rodata          const    0x00004fdc     0xc  sysctl.o [1]
  .rodata          const    0x00004fe8     0xc  sysctl.o [1]
  .text            ro code  0x00004ff4     0xc  app_vect.o [1]
  .text            ro code  0x00005000     0xc  cstartup_M.o [5]
  .rodata          const    0x0000500c     0x8  bsp_display.o [1]
  .rodata          const    0x00005014     0x8  bsp_display.o [1]
  .rodata          const    0x0000501c     0x8  os_core.o [1]
  .rodata          const    0x00005024     0x8  os_task.o [1]
  .rodata          const    0x0000502c     0x4  os_cfg_app.o [1]
  .rodata          const    0x00005030     0x4  os_cfg_app.o [1]
  .rodata          const    0x00005034     0x4  os_cfg_app.o [1]
  .rodata          const    0x00005038     0x4  os_cfg_app.o [1]
  .rodata          const    0x0000503c     0x4  os_cfg_app.o [1]
  .rodata          const    0x00005040     0x4  os_cfg_app.o [1]
  .rodata          const    0x00005044     0x4  os_cfg_app.o [1]
  .rodata          const    0x00005048     0x4  os_cfg_app.o [1]
  .rodata          const    0x0000504c     0x4  os_cfg_app.o [1]
  .rodata          const    0x00005050     0x4  os_cfg_app.o [1]
  .rodata          const    0x00005054     0x4  os_cfg_app.o [1]
  .rodata          const    0x00005058     0x4  os_cfg_app.o [1]
  .rodata          const    0x0000505c     0x4  os_cfg_app.o [1]
  .rodata          const    0x00005060     0x4  os_cfg_app.o [1]
  .rodata          const    0x00005064     0x4  os_cfg_app.o [1]
  .rodata          const    0x00005068     0x4  os_cfg_app.o [1]
  .rodata          const    0x0000506c     0x4  os_cfg_app.o [1]
  .rodata          const    0x00005070     0x4  os_cfg_app.o [1]
  .rodata          const    0x00005074     0x4  os_cfg_app.o [1]
  .rodata          const    0x00005078     0x4  os_cfg_app.o [1]
  .rodata          const    0x0000507c     0x4  os_cfg_app.o [1]
  .rodata          const    0x00005080     0x4  os_cfg_app.o [1]
  .rodata          const    0x00005084     0x4  os_cfg_app.o [1]
  .rodata          const    0x00005088     0x4  os_dbg.o [1]
  .rodata          const    0x0000508c     0x4  os_dbg.o [1]
  .rodata          const    0x00005090     0x4  os_dbg.o [1]
  .rodata          const    0x00005094     0x4  OS_RecTask.o [1]
  .rodata          const    0x00005098     0x4  OS_RecTask.o [1]
  .rodata          const    0x0000509c     0x4  OS_RecTask.o [1]
  .rodata          const    0x000050a0     0x2  os_dbg.o [1]
  .rodata          const    0x000050a2     0x2  os_dbg.o [1]
  .rodata          const    0x000050a4     0x2  os_dbg.o [1]
  .rodata          const    0x000050a6     0x2  os_dbg.o [1]
  .rodata          const    0x000050a8     0x2  os_dbg.o [1]
  .rodata          const    0x000050aa     0x2  os_dbg.o [1]
  .rodata          const    0x000050ac     0x2  os_dbg.o [1]
  .rodata          const    0x000050ae     0x2  os_dbg.o [1]
  .rodata          const    0x000050b0     0x2  os_dbg.o [1]
  .rodata          const    0x000050b2     0x2  os_dbg.o [1]
  .rodata          const    0x000050b4     0x2  os_dbg.o [1]
  .rodata          const    0x000050b6     0x2  os_dbg.o [1]
  .rodata          const    0x000050b8     0x2  os_dbg.o [1]
  .rodata          const    0x000050ba     0x2  os_dbg.o [1]
  .rodata          const    0x000050bc     0x1  os_cfg_app.o [1]
  .rodata          const    0x000050bd     0x1  os_cfg_app.o [1]
  .rodata          const    0x000050be     0x1  os_dbg.o [1]
  .rodata          const    0x000050bf     0x1  os_dbg.o [1]
  .rodata          const    0x000050c0     0x1  os_dbg.o [1]
  .rodata          const    0x000050c1     0x1  os_dbg.o [1]
  .rodata          const    0x000050c2     0x1  os_dbg.o [1]
  .rodata          const    0x000050c3     0x1  os_dbg.o [1]
  .rodata          const    0x000050c4     0x1  os_dbg.o [1]
  .rodata          const    0x000050c5     0x1  os_dbg.o [1]
  .rodata          const    0x000050c6     0x1  os_dbg.o [1]
  .rodata          const    0x000050c7     0x1  os_dbg.o [1]
  .rodata          const    0x000050c8     0x1  os_dbg.o [1]
  .rodata          const    0x000050c9     0x1  os_dbg.o [1]
  .rodata          const    0x000050ca     0x1  os_dbg.o [1]
  .rodata          const    0x000050cb     0x1  os_dbg.o [1]
  .rodata          const    0x000050cc     0x1  os_dbg.o [1]
  .rodata          const    0x000050cd     0x1  os_dbg.o [1]
  .rodata          const    0x000050ce     0x1  os_dbg.o [1]
  .rodata          const    0x000050cf     0x1  os_dbg.o [1]
  .rodata          const    0x000050d0     0x1  os_dbg.o [1]
  .rodata          const    0x000050d1     0x1  os_dbg.o [1]
  .rodata          const    0x000050d2     0x1  os_dbg.o [1]
  .rodata          const    0x000050d3     0x1  os_dbg.o [1]
  .rodata          const    0x000050d4     0x1  os_dbg.o [1]
  .rodata          const    0x000050d5     0x1  os_dbg.o [1]
  .rodata          const    0x000050d6     0x1  os_dbg.o [1]
  .rodata          const    0x000050d7     0x1  os_dbg.o [1]
  .rodata          const    0x000050d8     0x1  os_dbg.o [1]
  .rodata          const    0x000050d9     0x1  os_dbg.o [1]
  .rodata          const    0x000050da     0x1  os_dbg.o [1]
  .rodata          const    0x000050db     0x1  os_dbg.o [1]
  .rodata          const    0x000050dc     0x1  os_dbg.o [1]
  .rodata          const    0x000050dd     0x1  os_dbg.o [1]
  .rodata          const    0x000050de     0x0  zero_init3.o [5]
                          - 0x000050de  0x4fc2

"P2", part 1 of 2:                      0x24f4
  .bss             zero     0x20000000   0x640  os_cfg_app.o [1]
  .bss             zero     0x20000640   0x200  app.o [1]
  .bss             zero     0x20000840   0x200  app.o [1]
  .bss             zero     0x20000a40   0x200  app.o [1]
  .bss             zero     0x20000c40   0x200  app.o [1]
  .bss             zero     0x20000e40   0x200  app.o [1]
  .bss             zero     0x20001040   0x200  app.o [1]
  .bss             zero     0x20001240   0x200  os_cfg_app.o [1]
  .bss             zero     0x20001440   0x200  os_cfg_app.o [1]
  .bss             zero     0x20001640   0x200  os_cfg_app.o [1]
  .bss             zero     0x20001840   0x200  OS_RecTask.o [1]
  .bss             zero     0x20001a40   0x118  bsp_int.o [1]
  .bss             zero     0x20001b58   0x100  os_cfg_app.o [1]
  .bss             zero     0x20001c58    0xf0  os_var.o [1]
  .bss             zero     0x20001d48    0x94  app.o [1]
  .bss             zero     0x20001ddc    0x94  app.o [1]
  .bss             zero     0x20001e70    0x94  app.o [1]
  .bss             zero     0x20001f04    0x94  app.o [1]
  .bss             zero     0x20001f98    0x94  app.o [1]
  .bss             zero     0x2000202c    0x94  app.o [1]
  .bss             zero     0x200020c0    0x94  OS_RecTask.o [1]
  .bss             zero     0x20002154    0x94  os_var.o [1]
  .bss             zero     0x200021e8    0x94  os_var.o [1]
  .bss             zero     0x2000227c    0x94  os_var.o [1]
  .bss             zero     0x20002310    0x88  os_cfg_app.o [1]
  .bss             zero     0x20002398    0x88  os_cfg_app.o [1]
  .bss             zero     0x20002420    0x10  cpu_core.o [1]
  .bss             zero     0x20002430     0x8  OS_RecTask.o [1]
  .bss             zero     0x20002438     0x8  OS_Task_Scheduling.o [1]
  .bss             zero     0x20002440     0x8  os_var.o [1]
  .bss             zero     0x20002448     0x4  bsp.o [1]
  .bss             zero     0x2000244c     0x4  bsp_display.o [1]
  .bss             zero     0x20002450     0x4  cpu_core.o [1]
  .bss             zero     0x20002454     0x4  cpu_core.o [1]
  .bss             zero     0x20002458     0x4  cpu_core.o [1]
  .bss             zero     0x2000245c     0x4  cpu_core.o [1]
  .bss             zero     0x20002460     0x4  cpu_core.o [1]
  .bss             zero     0x20002464     0x4  cpu_core.o [1]
  .bss             zero     0x20002468     0x4  os_cpu_c.o [1]
  .bss             zero     0x2000246c     0x4  os_prio.o [1]
  .bss             zero     0x20002470     0x4  OS_RecTask.o [1]
  .bss             zero     0x20002474     0x4  OS_RecTask.o [1]
  .bss             zero     0x20002478     0x4  OS_Task_Scheduling.o [1]
  .bss             zero     0x2000247c     0x4  OS_Task_Scheduling.o [1]
  .bss             zero     0x20002480     0x4  OS_Task_Scheduling.o [1]
  .bss             zero     0x20002484     0x4  OS_Task_Scheduling.o [1]
  .bss             zero     0x20002488     0x4  OS_Task_Scheduling.o [1]
  .bss             zero     0x2000248c     0x4  os_var.o [1]
  .bss             zero     0x20002490     0x4  os_var.o [1]
  .bss             zero     0x20002494     0x4  os_var.o [1]
  .bss             zero     0x20002498     0x4  os_var.o [1]
  .bss             zero     0x2000249c     0x4  os_var.o [1]
  .bss             zero     0x200024a0     0x4  os_var.o [1]
  .bss             zero     0x200024a4     0x4  os_var.o [1]
  .bss             zero     0x200024a8     0x4  os_var.o [1]
  .bss             zero     0x200024ac     0x4  os_var.o [1]
  .bss             zero     0x200024b0     0x4  os_var.o [1]
  .bss             zero     0x200024b4     0x4  os_var.o [1]
  .bss             zero     0x200024b8     0x4  os_var.o [1]
  .bss             zero     0x200024bc     0x4  os_var.o [1]
  .bss             zero     0x200024c0     0x4  os_var.o [1]
  .bss             zero     0x200024c4     0x4  os_var.o [1]
  .bss             zero     0x200024c8     0x4  os_var.o [1]
  .bss             zero     0x200024cc     0x4  os_var.o [1]
  .bss             zero     0x200024d0     0x4  os_var.o [1]
  .bss             zero     0x200024d4     0x4  no_free_heap0.o [3]
  .bss             zero     0x200024d8     0x4  xgetmemchunk.o [3]
  .bss             zero     0x200024dc     0x2  cpu_core.o [1]
  .bss             zero     0x200024de     0x2  cpu_core.o [1]
  .bss             zero     0x200024e0     0x2  os_var.o [1]
  .bss             zero     0x200024e2     0x2  os_var.o [1]
  .bss             zero     0x200024e4     0x2  os_var.o [1]
  .bss             zero     0x200024e6     0x2  os_var.o [1]
  .bss             zero     0x200024e8     0x1  app.o [1]
  .bss             zero     0x200024e9     0x1  app.o [1]
  .bss             zero     0x200024ea     0x1  app.o [1]
  .bss             zero     0x200024eb     0x1  app.o [1]
  .bss             zero     0x200024ec     0x1  app.o [1]
  .bss             zero     0x200024ed     0x1  os_var.o [1]
  .bss             zero     0x200024ee     0x1  os_var.o [1]
  .bss             zero     0x200024ef     0x1  os_var.o [1]
  .bss             zero     0x200024f0     0x1  os_var.o [1]
  .bss             zero     0x200024f1     0x1  os_var.o [1]
                          - 0x200024f2  0x24f2

"P2", part 2 of 2:                      0x4800
  CSTACK                    0x200024f8   0x800  <Block>
    CSTACK         uninit   0x200024f8   0x800  <Block tail>
  HEAP                      0x20002cf8  0x4000  <Block>
    HEAP           uninit   0x20002cf8  0x4000  <Block tail>
                          - 0x20006cf8  0x4800


*******************************************************************************
*** INIT TABLE
***

          Address     Size
          -------     ----
Zero (__iar_zero_init3)
    1 destination range, total size 0x24f2:
          0x20000000  0x24f2



*******************************************************************************
*** MODULE SUMMARY
***

    Module                ro code  ro data  rw data
    ------                -------  -------  -------
C:\Users\davin\Downloads\CE4053 phase 1 works\Micrium\Software\EvalBoards\TI\LM3S9B92-EVALBOT\IAR\uCOS-III-CE4053_PG\Flash\Obj: [1]
    OS_RecTask.o            1 212       40      676
    OS_RecTaskUtil.o        1 984       36
    OS_Task_Scheduling.o    1 104       40       28
    app.o                   1 232       84    3 965
    app_vect.o                 12      284
    bsp.o                     168                 4
    bsp_display.o             616       96        4
    bsp_int.o                 598               280
    bsp_io.o                  160
    bsp_motor.o               508
    bsp_sensors.o             340
    cpu_a.o                    42
    cpu_bsp.o                  40
    cpu_c.o                   328
    cpu_core.o                408                44
    ethernet.o                102
    gpio.o                    864       72
    i2c.o                     198
    lib_mem.o                  96
    os_cfg_app.o              172      100    3 664
    os_core.o               2 388       40
    os_cpu_a.o                132
    os_cpu_c.o                340                 4
    os_dbg.o                  368      344
    os_mem.o                  376
    os_msg.o                  208
    os_mutex.o                 28
    os_prio.o                 148                 4
    os_q.o                     28
    os_task.o               1 484        8
    os_tick.o               1 096       20
    os_time.o                  88
    os_tmr.o                  748       24
    os_var.o                                    777
    pwm.o                     242
    sysctl.o                1 160      128
    -----------------------------------------------
    Total:                 19 018    1 316    9 450

command line: [2]
    -----------------------------------------------
    Total:

dl7M_tln.a: [3]
    exit.o                      4
    low_level_init.o            4
    no_free_heap0.o            68                 4
    xgetmemchunk.o             44                 4
    -----------------------------------------------
    Total:                    120                 8

m7M_tl.a: [4]
    -----------------------------------------------
    Total:

rt7M_tl.a: [5]
    ABImemclr4.o                6
    ABImemset48.o              50
    cexit.o                    10
    cmain.o                    30
    cstartup_M.o               12
    data_init.o                40
    zero_init3.o               64
    -----------------------------------------------
    Total:                    212

shb_l.a: [6]
    exit.o                     20
    -----------------------------------------------
    Total:                     20

    Linker created                      16   18 432
---------------------------------------------------
    Grand Total:           19 370    1 332   27 890


*******************************************************************************
*** ENTRY LIST
***

Entry                      Address   Size  Type      Object
-----                      -------   ----  ----      ------
.iar.init_table$$Base   0x00004e50          --   Gb  - Linker created -
.iar.init_table$$Limit  0x00004e60          --   Gb  - Linker created -
?main                   0x00004e81         Code  Gb  cmain.o [5]
AppRobotMotorDriveSensorEnable
                        0x00004a51   0x1c  Code  Lc  app.o [1]
AppTaskStart            0x0000472d  0x18a  Code  Lc  app.o [1]
AppTaskStartStk         0x20000640  0x200  Data  Lc  app.o [1]
AppTaskStartTCB         0x20001d48   0x94  Data  Lc  app.o [1]
App_BusFault_ISR        0x00004ff9    0x2  Code  Lc  app_vect.o [1]
App_Fault_ISR           0x00004ff7    0x2  Code  Lc  app_vect.o [1]
App_MemFault_ISR        0x00004ffd    0x2  Code  Lc  app_vect.o [1]
App_NMI_ISR             0x00004ff5    0x2  Code  Lc  app_vect.o [1]
App_Spurious_ISR        0x00004fff    0x2  Code  Lc  app_vect.o [1]
App_UsageFault_ISR      0x00004ffb    0x2  Code  Lc  app_vect.o [1]
BSP_BumpSensorsInit     0x00003cf1   0x18  Code  Gb  bsp_sensors.o [1]
BSP_CPUClkFreq          0x00003291   0x12  Code  Gb  bsp.o [1]
BSP_CPU_ClkFreq_MHz     0x20002448    0x4  Data  Gb  bsp.o [1]
BSP_DisplayClear        0x00003ac3   0x4c  Code  Gb  bsp_display.o [1]
BSP_DisplayInit         0x00003b4b   0xd6  Code  Gb  bsp_display.o [1]
BSP_DisplayOn           0x00003b0f   0x3c  Code  Gb  bsp_display.o [1]
BSP_DisplayWriteArray   0x00003a45   0x3e  Code  Lc  bsp_display.o [1]
BSP_DisplayWriteByte    0x00003a11   0x34  Code  Lc  bsp_display.o [1]
BSP_DisplayWriteFinal   0x00003a83   0x40  Code  Lc  bsp_display.o [1]
BSP_DisplayWriteFirst   0x000039e9   0x28  Code  Lc  bsp_display.o [1]
BSP_Init                0x0000322d   0x64  Code  Gb  bsp.o [1]
BSP_IntDisAll           0x00003791    0x8  Code  Gb  bsp_int.o [1]
BSP_IntEn               0x00003799   0x10  Code  Gb  bsp_int.o [1]
BSP_IntHandler          0x000039bf   0x20  Code  Lc  bsp_int.o [1]
BSP_IntHandlerADC0      0x00003843    0xa  Code  Gb  bsp_int.o [1]
BSP_IntHandlerADC1      0x0000384d    0xa  Code  Gb  bsp_int.o [1]
BSP_IntHandlerADC1_0    0x00003979    0xa  Code  Gb  bsp_int.o [1]
BSP_IntHandlerADC1_1    0x00003983    0xa  Code  Gb  bsp_int.o [1]
BSP_IntHandlerADC1_2    0x0000398d    0xa  Code  Gb  bsp_int.o [1]
BSP_IntHandlerADC1_3    0x00003997    0xa  Code  Gb  bsp_int.o [1]
BSP_IntHandlerADC2      0x00003857    0xa  Code  Gb  bsp_int.o [1]
BSP_IntHandlerADC3      0x00003861    0xa  Code  Gb  bsp_int.o [1]
BSP_IntHandlerCAN0      0x00003933    0xa  Code  Gb  bsp_int.o [1]
BSP_IntHandlerCAN1      0x0000393d    0xa  Code  Gb  bsp_int.o [1]
BSP_IntHandlerCOMP0     0x000038b1    0xa  Code  Gb  bsp_int.o [1]
BSP_IntHandlerCOMP1     0x000038bb    0xa  Code  Gb  bsp_int.o [1]
BSP_IntHandlerCOMP2     0x000038c5    0xa  Code  Gb  bsp_int.o [1]
BSP_IntHandlerDummy     0x000039e5    0x2  Code  Lc  bsp_int.o [1]
BSP_IntHandlerEPI       0x000039ab    0xa  Code  Gb  bsp_int.o [1]
BSP_IntHandlerETH       0x00003947    0xa  Code  Gb  bsp_int.o [1]
BSP_IntHandlerFLASH     0x000038d9    0xa  Code  Gb  bsp_int.o [1]
BSP_IntHandlerGPIOA     0x000037e9    0xa  Code  Gb  bsp_int.o [1]
BSP_IntHandlerGPIOB     0x000037f3    0xa  Code  Gb  bsp_int.o [1]
BSP_IntHandlerGPIOC     0x000037fd    0xa  Code  Gb  bsp_int.o [1]
BSP_IntHandlerGPIOD     0x00003807    0xa  Code  Gb  bsp_int.o [1]
BSP_IntHandlerGPIOE     0x00003811    0xa  Code  Gb  bsp_int.o [1]
BSP_IntHandlerGPIOF     0x000038e3    0xa  Code  Gb  bsp_int.o [1]
BSP_IntHandlerGPIOG     0x000038ed    0xa  Code  Gb  bsp_int.o [1]
BSP_IntHandlerGPIOH     0x000038f7    0xa  Code  Gb  bsp_int.o [1]
BSP_IntHandlerGPIOJ     0x000039b5    0xa  Code  Gb  bsp_int.o [1]
BSP_IntHandlerHIBERNATE
                        0x00003951    0xa  Code  Gb  bsp_int.o [1]
BSP_IntHandlerI2C0      0x00003839    0xa  Code  Gb  bsp_int.o [1]
BSP_IntHandlerI2C1      0x00003929    0xa  Code  Gb  bsp_int.o [1]
BSP_IntHandlerI2S0      0x000039a1    0xa  Code  Gb  bsp_int.o [1]
BSP_IntHandlerSSI0      0x0000382f    0xa  Code  Gb  bsp_int.o [1]
BSP_IntHandlerSSI1      0x0000390b    0xa  Code  Gb  bsp_int.o [1]
BSP_IntHandlerSYSCTL    0x000038cf    0xa  Code  Gb  bsp_int.o [1]
BSP_IntHandlerTIMER0A   0x00003875    0xa  Code  Gb  bsp_int.o [1]
BSP_IntHandlerTIMER0B   0x0000387f    0xa  Code  Gb  bsp_int.o [1]
BSP_IntHandlerTIMER1A   0x00003889    0xa  Code  Gb  bsp_int.o [1]
BSP_IntHandlerTIMER1B   0x00003893    0xa  Code  Gb  bsp_int.o [1]
BSP_IntHandlerTIMER2A   0x0000389d    0xa  Code  Gb  bsp_int.o [1]
BSP_IntHandlerTIMER2B   0x000038a7    0xa  Code  Gb  bsp_int.o [1]
BSP_IntHandlerTIMER3A   0x00003915    0xa  Code  Gb  bsp_int.o [1]
BSP_IntHandlerTIMER3B   0x0000391f    0xa  Code  Gb  bsp_int.o [1]
BSP_IntHandlerUART0     0x0000381b    0xa  Code  Gb  bsp_int.o [1]
BSP_IntHandlerUART1     0x00003825    0xa  Code  Gb  bsp_int.o [1]
BSP_IntHandlerUART2     0x00003901    0xa  Code  Gb  bsp_int.o [1]
BSP_IntHandlerUDMA_ERR  0x0000396f    0xa  Code  Gb  bsp_int.o [1]
BSP_IntHandlerUDMA_SW   0x00003965    0xa  Code  Gb  bsp_int.o [1]
BSP_IntHandlerUSB       0x0000395b    0xa  Code  Gb  bsp_int.o [1]
BSP_IntHandlerWATCHDOG  0x0000386b    0xa  Code  Gb  bsp_int.o [1]
BSP_IntInit             0x000037d1   0x18  Code  Gb  bsp_int.o [1]
BSP_IntVectSet          0x000037a9   0x28  Code  Gb  bsp_int.o [1]
BSP_IntVectTbl          0x20001a40  0x118  Data  Lc  bsp_int.o [1]
BSP_LED_Off             0x00003cb1   0x36  Code  Gb  bsp_io.o [1]
BSP_LED_On              0x00003c7b   0x36  Code  Gb  bsp_io.o [1]
BSP_LEDsInit            0x00003c69   0x12  Code  Gb  bsp_io.o [1]
BSP_MotorDir            0x00003f21   0x44  Code  Gb  bsp_motor.o [1]
BSP_MotorRun            0x00003f65   0x1c  Code  Gb  bsp_motor.o [1]
BSP_MotorSpeed          0x00003fb1   0x7a  Code  Gb  bsp_motor.o [1]
BSP_MotorStop           0x00003f81   0x30  Code  Gb  bsp_motor.o [1]
BSP_MotorsInit          0x00003e45   0xdc  Code  Gb  bsp_motor.o [1]
BSP_PushButtonsInit     0x00003c51   0x18  Code  Gb  bsp_io.o [1]
BSP_WheelSensorEnable   0x00003dab    0xe  Code  Gb  bsp_sensors.o [1]
BSP_WheelSensorIntEnable
                        0x00003db9   0x7e  Code  Gb  bsp_sensors.o [1]
BSP_WheelSensorsInit    0x00003d09   0xa2  Code  Gb  bsp_sensors.o [1]
CPU_CntLeadZeros        0x000022c7         Code  Gb  cpu_a.o [1]
CPU_Init                0x0000272d   0x10  Code  Gb  cpu_core.o [1]
CPU_IntDis              0x000022b1         Code  Gb  cpu_a.o [1]
CPU_IntDisMeasCtr       0x200024dc    0x2  Data  Gb  cpu_core.o [1]
CPU_IntDisMeasInit      0x00002817   0x76  Code  Lc  cpu_core.o [1]
CPU_IntDisMeasMaxCalc   0x0000288d   0x14  Code  Lc  cpu_core.o [1]
CPU_IntDisMeasMaxCurGet
                        0x00002781   0x18  Code  Gb  cpu_core.o [1]
CPU_IntDisMeasMaxCurReset
                        0x00002765   0x1c  Code  Gb  cpu_core.o [1]
CPU_IntDisMeasMaxCur_cnts
                        0x20002460    0x4  Data  Gb  cpu_core.o [1]
CPU_IntDisMeasMax_cnts  0x20002464    0x4  Data  Gb  cpu_core.o [1]
CPU_IntDisMeasOvrhd_cnts
                        0x2000245c    0x4  Data  Gb  cpu_core.o [1]
CPU_IntDisMeasStart     0x00002799   0x28  Code  Gb  cpu_core.o [1]
CPU_IntDisMeasStart_cnts
                        0x20002454    0x4  Data  Gb  cpu_core.o [1]
CPU_IntDisMeasStop      0x000027c1   0x40  Code  Gb  cpu_core.o [1]
CPU_IntDisMeasStop_cnts
                        0x20002458    0x4  Data  Gb  cpu_core.o [1]
CPU_IntDisNestCtr       0x200024de    0x2  Data  Gb  cpu_core.o [1]
CPU_IntEn               0x000022b5         Code  Gb  cpu_a.o [1]
CPU_IntSrcEn            0x00004075  0x136  Code  Gb  cpu_c.o [1]
CPU_Name                0x20002420   0x10  Data  Gb  cpu_core.o [1]
CPU_NameClr             0x0000273d   0x22  Code  Gb  cpu_core.o [1]
CPU_NameInit            0x00002801    0x8  Code  Lc  cpu_core.o [1]
CPU_RevBits             0x000022cd         Code  Gb  cpu_a.o [1]
CPU_SR_Restore          0x000022c1         Code  Gb  cpu_a.o [1]
CPU_SR_Save             0x000022b9         Code  Gb  cpu_a.o [1]
CPU_TS_Init             0x00002809    0xe  Code  Lc  cpu_core.o [1]
CPU_TS_TmrFreqSet       0x0000275f    0x6  Code  Gb  cpu_core.o [1]
CPU_TS_TmrFreq_Hz       0x20002450    0x4  Data  Gb  cpu_core.o [1]
CPU_TS_TmrInit          0x00002949   0x18  Code  Gb  cpu_bsp.o [1]
CPU_TS_TmrRd            0x00002961    0x6  Code  Gb  cpu_bsp.o [1]
CPU_WaitForExcept       0x000022d7         Code  Gb  cpu_a.o [1]
CPU_WaitForInt          0x000022d3         Code  Gb  cpu_a.o [1]
CSTACK$$Base            0x200024f8          --   Gb  - Linker created -
CSTACK$$Limit           0x20002cf8          --   Gb  - Linker created -
EthernetPHYRead         0x00004bdf   0x30  Code  Gb  ethernet.o [1]
EthernetPHYWrite        0x00004ba9   0x36  Code  Gb  ethernet.o [1]
GPIODirModeSet          0x00004285   0x52  Code  Gb  gpio.o [1]
GPIOIntTypeSet          0x000042d7   0x78  Code  Gb  gpio.o [1]
GPIOPadConfigSet        0x0000434f  0x15c  Code  Gb  gpio.o [1]
GPIOPinConfigure        0x00004593   0x46  Code  Gb  gpio.o [1]
GPIOPinIntClear         0x000044eb    0xc  Code  Gb  gpio.o [1]
GPIOPinIntDisable       0x000044bf   0x14  Code  Gb  gpio.o [1]
GPIOPinIntEnable        0x000044ab   0x14  Code  Gb  gpio.o [1]
GPIOPinIntStatus        0x000044d3   0x18  Code  Gb  gpio.o [1]
GPIOPinTypeGPIOInput    0x0000450b   0x22  Code  Gb  gpio.o [1]
GPIOPinTypeGPIOOutput   0x0000452d   0x22  Code  Gb  gpio.o [1]
GPIOPinTypeI2C          0x0000454f   0x22  Code  Gb  gpio.o [1]
GPIOPinTypePWM          0x00004571   0x22  Code  Gb  gpio.o [1]
GPIOPinWrite            0x000044f7   0x14  Code  Gb  gpio.o [1]
HEAP$$Base              0x20002cf8          --   Gb  - Linker created -
HEAP$$Limit             0x20006cf8          --   Gb  - Linker created -
I2CMasterControl        0x00004251    0x6  Code  Gb  i2c.o [1]
I2CMasterDataPut        0x00004277    0xc  Code  Gb  i2c.o [1]
I2CMasterEnable         0x000041f5   0x12  Code  Gb  i2c.o [1]
I2CMasterErr            0x00004257   0x20  Code  Gb  i2c.o [1]
I2CMasterInitExpClk     0x000041bd   0x38  Code  Gb  i2c.o [1]
I2CMasterIntStatus      0x00004207   0x2c  Code  Gb  i2c.o [1]
I2CMasterSlaveAddrSet   0x0000423d   0x14  Code  Gb  i2c.o [1]
IntWheelSensor          0x0000497f   0xd2  Code  Gb  app.o [1]
IntWheelSensor::CountL  0x200024ea    0x1  Data  Lc  app.o [1]
IntWheelSensor::CountR  0x200024eb    0x1  Data  Lc  app.o [1]
IntWheelSensor::data    0x200024ec    0x1  Data  Lc  app.o [1]
LEDBlink                0x000048b9   0x28  Code  Lc  app.o [1]
LEDBlinkStk             0x20000840  0x200  Data  Lc  app.o [1]
LEDBlinkTCB             0x20001ddc   0x94  Data  Lc  app.o [1]
Left_tgt                0x200024e8    0x1  Data  Gb  app.o [1]
Mem_Clr                 0x000031cd    0xc  Code  Gb  lib_mem.o [1]
Mem_Set                 0x000031d9   0x54  Code  Gb  lib_mem.o [1]
OSCfg_DataSizeRAM       0x00005084    0x4  Data  Gb  os_cfg_app.o [1]
OSCfg_ISRStk            0x20001240  0x200  Data  Gb  os_cfg_app.o [1]
OSCfg_ISRStkBasePtr     0x0000503c    0x4  Data  Gb  os_cfg_app.o [1]
OSCfg_ISRStkSize        0x00005040    0x4  Data  Gb  os_cfg_app.o [1]
OSCfg_ISRStkSizeRAM     0x00005044    0x4  Data  Gb  os_cfg_app.o [1]
OSCfg_IdleTaskStk       0x20001b58  0x100  Data  Gb  os_cfg_app.o [1]
OSCfg_IdleTaskStkBasePtr
                        0x0000502c    0x4  Data  Gb  os_cfg_app.o [1]
OSCfg_IdleTaskStkLimit  0x00005030    0x4  Data  Gb  os_cfg_app.o [1]
OSCfg_IdleTaskStkSize   0x00005034    0x4  Data  Gb  os_cfg_app.o [1]
OSCfg_IdleTaskStkSizeRAM
                        0x00005038    0x4  Data  Gb  os_cfg_app.o [1]
OSCfg_Init              0x00002205   0xac  Code  Gb  os_cfg_app.o [1]
OSCfg_MsgPool           0x20000000  0x640  Data  Gb  os_cfg_app.o [1]
OSCfg_MsgPoolBasePtr    0x0000504c    0x4  Data  Gb  os_cfg_app.o [1]
OSCfg_MsgPoolSize       0x000022da    0x2  Data  Gb  os_cfg_app.o [1]
OSCfg_MsgPoolSizeRAM    0x00005048    0x4  Data  Gb  os_cfg_app.o [1]
OSCfg_RecRlsTaskStk     0x20001840  0x200  Data  Gb  OS_RecTask.o [1]
OSCfg_RecRlsTaskStkBasePtr
                        0x00005094    0x4  Data  Gb  OS_RecTask.o [1]
OSCfg_RecRlsTaskStkLimit
                        0x00005098    0x4  Data  Gb  OS_RecTask.o [1]
OSCfg_RecRlsTaskStkSize
                        0x0000509c    0x4  Data  Gb  OS_RecTask.o [1]
OSCfg_StkSizeMin        0x00005050    0x4  Data  Gb  os_cfg_app.o [1]
OSCfg_TickRate_Hz       0x00005054    0x4  Data  Gb  os_cfg_app.o [1]
OSCfg_TickTaskPrio      0x000050bc    0x1  Data  Gb  os_cfg_app.o [1]
OSCfg_TickTaskStk       0x20001440  0x200  Data  Gb  os_cfg_app.o [1]
OSCfg_TickTaskStkBasePtr
                        0x00005058    0x4  Data  Gb  os_cfg_app.o [1]
OSCfg_TickTaskStkLimit  0x0000505c    0x4  Data  Gb  os_cfg_app.o [1]
OSCfg_TickTaskStkSize   0x00005060    0x4  Data  Gb  os_cfg_app.o [1]
OSCfg_TickTaskStkSizeRAM
                        0x00005064    0x4  Data  Gb  os_cfg_app.o [1]
OSCfg_TickWheel         0x20002310   0x88  Data  Gb  os_cfg_app.o [1]
OSCfg_TickWheelSize     0x000032da    0x2  Data  Gb  os_cfg_app.o [1]
OSCfg_TickWheelSizeRAM  0x00005068    0x4  Data  Gb  os_cfg_app.o [1]
OSCfg_TmrTaskPrio       0x000050bd    0x1  Data  Gb  os_cfg_app.o [1]
OSCfg_TmrTaskRate_Hz    0x0000506c    0x4  Data  Gb  os_cfg_app.o [1]
OSCfg_TmrTaskStk        0x20001640  0x200  Data  Gb  os_cfg_app.o [1]
OSCfg_TmrTaskStkBasePtr
                        0x00005070    0x4  Data  Gb  os_cfg_app.o [1]
OSCfg_TmrTaskStkLimit   0x00005074    0x4  Data  Gb  os_cfg_app.o [1]
OSCfg_TmrTaskStkSize    0x00005078    0x4  Data  Gb  os_cfg_app.o [1]
OSCfg_TmrTaskStkSizeRAM
                        0x0000507c    0x4  Data  Gb  os_cfg_app.o [1]
OSCfg_TmrWheel          0x20002398   0x88  Data  Gb  os_cfg_app.o [1]
OSCfg_TmrWheelSize      0x000039e6    0x2  Data  Gb  os_cfg_app.o [1]
OSCfg_TmrWheelSizeRAM   0x00005080    0x4  Data  Gb  os_cfg_app.o [1]
OSDbg_AppHooksEn        0x000050bf    0x1  Data  Gb  os_dbg.o [1]
OSDbg_ArgChkEn          0x000050be    0x1  Data  Gb  os_dbg.o [1]
OSDbg_CalledFromISRChkEn
                        0x000050c0    0x1  Data  Gb  os_dbg.o [1]
OSDbg_DataSize          0x00005090    0x4  Data  Gb  os_dbg.o [1]
OSDbg_DbgEn             0x00004072    0x2  Data  Gb  os_dbg.o [1]
OSDbg_EndiannessTest    0x00005088    0x4  Data  Gb  os_dbg.o [1]
OSDbg_FlagEn            0x000050c1    0x1  Data  Gb  os_dbg.o [1]
OSDbg_FlagGrp           0x00004dd8   0x28  Data  Gb  os_dbg.o [1]
OSDbg_ISRPostDeferredEn
                        0x000050c2    0x1  Data  Gb  os_dbg.o [1]
OSDbg_Mem               0x00004e60   0x20  Data  Gb  os_dbg.o [1]
OSDbg_MemEn             0x000050c3    0x1  Data  Gb  os_dbg.o [1]
OSDbg_MemSize           0x00004282    0x2  Data  Gb  os_dbg.o [1]
OSDbg_MsgEn             0x000050c4    0x1  Data  Gb  os_dbg.o [1]
OSDbg_MsgPoolSize       0x00004c0e    0x2  Data  Gb  os_dbg.o [1]
OSDbg_MsgQSize          0x00004ea6    0x2  Data  Gb  os_dbg.o [1]
OSDbg_MsgSize           0x000046d6    0x2  Data  Gb  os_dbg.o [1]
OSDbg_Mutex             0x00004d78   0x30  Data  Gb  os_dbg.o [1]
OSDbg_MutexDelEn        0x000050c6    0x1  Data  Gb  os_dbg.o [1]
OSDbg_MutexEn           0x000050c5    0x1  Data  Gb  os_dbg.o [1]
OSDbg_MutexPendAbortEn  0x000050c7    0x1  Data  Gb  os_dbg.o [1]
OSDbg_MutexSize         0x00004eb2    0x2  Data  Gb  os_dbg.o [1]
OSDbg_ObjTypeChkEn      0x000050c8    0x1  Data  Gb  os_dbg.o [1]
OSDbg_PendDataSize      0x000050a0    0x2  Data  Gb  os_dbg.o [1]
OSDbg_PendListSize      0x000050a2    0x2  Data  Gb  os_dbg.o [1]
OSDbg_PendMultiEn       0x000050c9    0x1  Data  Gb  os_dbg.o [1]
OSDbg_PendObjSize       0x000050a4    0x2  Data  Gb  os_dbg.o [1]
OSDbg_PrioMax           0x000050a6    0x2  Data  Gb  os_dbg.o [1]
OSDbg_PrioTblSize       0x000050a8    0x2  Data  Gb  os_dbg.o [1]
OSDbg_PtrSize           0x000050aa    0x2  Data  Gb  os_dbg.o [1]
OSDbg_Q                 0x00004da8   0x30  Data  Gb  os_dbg.o [1]
OSDbg_QDelEn            0x000050cb    0x1  Data  Gb  os_dbg.o [1]
OSDbg_QEn               0x000050ca    0x1  Data  Gb  os_dbg.o [1]
OSDbg_QFlushEn          0x000050cc    0x1  Data  Gb  os_dbg.o [1]
OSDbg_QPendAbortEn      0x000050cd    0x1  Data  Gb  os_dbg.o [1]
OSDbg_QSize             0x000050ac    0x2  Data  Gb  os_dbg.o [1]
OSDbg_RdyList           0x000050ae    0x2  Data  Gb  os_dbg.o [1]
OSDbg_RdyListSize       0x0000508c    0x4  Data  Gb  os_dbg.o [1]
OSDbg_SchedRoundRobinEn
                        0x000050ce    0x1  Data  Gb  os_dbg.o [1]
OSDbg_Sem               0x00004e00   0x28  Data  Gb  os_dbg.o [1]
OSDbg_SemEn             0x000050cf    0x1  Data  Gb  os_dbg.o [1]
OSDbg_StatTaskEn        0x000050d1    0x1  Data  Gb  os_dbg.o [1]
OSDbg_StatTaskStkChkEn  0x000050d2    0x1  Data  Gb  os_dbg.o [1]
OSDbg_StkWidth          0x000050d0    0x1  Data  Gb  os_dbg.o [1]
OSDbg_TCBSize           0x000050b2    0x2  Data  Gb  os_dbg.o [1]
OSDbg_TaskChangePrioEn  0x000050d3    0x1  Data  Gb  os_dbg.o [1]
OSDbg_TaskDelEn         0x000050d4    0x1  Data  Gb  os_dbg.o [1]
OSDbg_TaskProfileEn     0x000050d7    0x1  Data  Gb  os_dbg.o [1]
OSDbg_TaskQEn           0x000050d5    0x1  Data  Gb  os_dbg.o [1]
OSDbg_TaskQPendAbortEn  0x000050d6    0x1  Data  Gb  os_dbg.o [1]
OSDbg_TaskRegTblSize    0x000050b0    0x2  Data  Gb  os_dbg.o [1]
OSDbg_TaskSemPendAbortEn
                        0x000050d8    0x1  Data  Gb  os_dbg.o [1]
OSDbg_TaskSuspendEn     0x000050d9    0x1  Data  Gb  os_dbg.o [1]
OSDbg_TickSpokeSize     0x000050b4    0x2  Data  Gb  os_dbg.o [1]
OSDbg_TimeDlyHMSMEn     0x000050da    0x1  Data  Gb  os_dbg.o [1]
OSDbg_TimeDlyResumeEn   0x000050db    0x1  Data  Gb  os_dbg.o [1]
OSDbg_Tmr               0x00004d44   0x34  Data  Gb  os_dbg.o [1]
OSDbg_TmrDelEn          0x000050dd    0x1  Data  Gb  os_dbg.o [1]
OSDbg_TmrEn             0x000050dc    0x1  Data  Gb  os_dbg.o [1]
OSDbg_TmrSize           0x000050b6    0x2  Data  Gb  os_dbg.o [1]
OSDbg_TmrSpokeSize      0x000050b8    0x2  Data  Gb  os_dbg.o [1]
OSDbg_VersionNbr        0x000050ba    0x2  Data  Gb  os_dbg.o [1]
OSIdleTaskCtr           0x2000248c    0x4  Data  Gb  os_var.o [1]
OSIdleTaskHook          0x00000a71    0x2  Code  Gb  os_cpu_c.o [1]
OSIdleTaskTCB           0x20002154   0x94  Data  Gb  os_var.o [1]
OSInit                  0x0000011d   0xde  Code  Gb  os_core.o [1]
OSInitHook              0x00000a73   0x14  Code  Gb  os_cpu_c.o [1]
OSIntEnter              0x000001fb   0x24  Code  Gb  os_core.o [1]
OSIntExit               0x0000021f   0xd2  Code  Gb  os_core.o [1]
OSIntNestingCtr         0x200024ed    0x1  Data  Gb  os_var.o [1]
OSMemCreate             0x00001b29   0x9c  Code  Gb  os_mem.o [1]
OSMemDbgListPtr         0x20002490    0x4  Data  Gb  os_var.o [1]
OSMemGet                0x00001bc5   0x4a  Code  Gb  os_mem.o [1]
OSMemPut                0x00001c0f   0x4a  Code  Gb  os_mem.o [1]
OSMemQty                0x200024e0    0x2  Data  Gb  os_var.o [1]
OSMsgPool               0x20002440    0x8  Data  Gb  os_var.o [1]
OSMutexDbgListPtr       0x20002494    0x4  Data  Gb  os_var.o [1]
OSMutexQty              0x200024e2    0x2  Data  Gb  os_var.o [1]
OSPrioCur               0x200024ef    0x1  Data  Gb  os_var.o [1]
OSPrioHighRdy           0x200024f0    0x1  Data  Gb  os_var.o [1]
OSPrioTbl               0x2000246c    0x4  Data  Gb  os_prio.o [1]
OSQDbgListPtr           0x20002498    0x4  Data  Gb  os_var.o [1]
OSQQty                  0x200024e4    0x2  Data  Gb  os_var.o [1]
OSRdyList               0x20001c58   0xf0  Data  Gb  os_var.o [1]
OSRdyMinHeap            0x20002438    0x8  Data  Gb  OS_Task_Scheduling.o [1]
OSRecRlsTaskTCB         0x200020c0   0x94  Data  Gb  OS_RecTask.o [1]
OSRecStart              0x000018f3   0x70  Code  Gb  OS_RecTask.o [1]
OSRecTaskCreate         0x0000166d  0x146  Code  Gb  OS_RecTask.o [1]
OSRecTaskRecreate       0x000017b3  0x112  Code  Gb  OS_RecTask.o [1]
OSRecTaskTree           0x20002430    0x8  Data  Gb  OS_RecTask.o [1]
OSRecTaskTreeInsert     0x00002d7b    0xe  Code  Gb  OS_RecTaskUtil.o [1]
OSRunning               0x200024ee    0x1  Data  Gb  os_var.o [1]
OSSched                 0x000002f1   0x98  Code  Gb  os_core.o [1]
OSSchedLock             0x00000389   0x68  Code  Gb  os_core.o [1]
OSSchedLockNestingCtr   0x200024f1    0x1  Data  Gb  os_var.o [1]
OSSchedLockTimeBegin    0x2000249c    0x4  Data  Gb  os_var.o [1]
OSSchedLockTimeMax      0x200024a0    0x4  Data  Gb  os_var.o [1]
OSSchedLockTimeMaxCur   0x200024a4    0x4  Data  Gb  os_var.o [1]
OSSchedUnlock           0x000003f1   0x88  Code  Gb  os_core.o [1]
OSStart                 0x00000479   0x62  Code  Gb  os_core.o [1]
OSStartHighRdy          0x000028c5         Code  Gb  os_cpu_a.o [1]
OSTCBCurPtr             0x200024cc    0x4  Data  Gb  os_var.o [1]
OSTCBHighRdyPtr         0x200024d0    0x4  Data  Gb  os_var.o [1]
OSTaskCreate            0x00000c59  0x124  Code  Gb  os_task.o [1]
OSTaskCreateHook        0x00000a87    0x2  Code  Gb  os_cpu_c.o [1]
OSTaskCtxSwCtr          0x200024a8    0x4  Data  Gb  os_var.o [1]
OSTaskDbgListPtr        0x200024ac    0x4  Data  Gb  os_var.o [1]
OSTaskDel               0x00000d7d  0x102  Code  Gb  os_task.o [1]
OSTaskDelHook           0x00000a89    0x2  Code  Gb  os_cpu_c.o [1]
OSTaskQty               0x200024e6    0x2  Data  Gb  os_var.o [1]
OSTaskRecDel            0x000018c5   0x2e  Code  Gb  OS_RecTask.o [1]
OSTaskReturnHook        0x00000a8b    0x2  Code  Gb  os_cpu_c.o [1]
OSTaskSemPend           0x00000e7f  0x144  Code  Gb  os_task.o [1]
OSTaskSemPost           0x00000fc3   0x1c  Code  Gb  os_task.o [1]
OSTaskStkInit           0x00000a8d   0x7e  Code  Gb  os_cpu_c.o [1]
OSTaskSwHook            0x00000b0b   0x36  Code  Gb  os_cpu_c.o [1]
OSTickCtr               0x200024b0    0x4  Data  Gb  os_var.o [1]
OSTickTaskTCB           0x200021e8   0x94  Data  Gb  os_var.o [1]
OSTickTaskTimeMax       0x200024b4    0x4  Data  Gb  os_var.o [1]
OSTimeTick              0x00002971   0x40  Code  Gb  os_time.o [1]
OSTimeTickHook          0x00000b41    0x2  Code  Gb  os_cpu_c.o [1]
OSTmrDbgListPtr         0x200024b8    0x4  Data  Gb  os_var.o [1]
OSTmrTaskTCB            0x2000227c   0x94  Data  Gb  os_var.o [1]
OSTmrTaskTimeMax        0x200024bc    0x4  Data  Gb  os_var.o [1]
OSTmrTickCtr            0x200024c0    0x4  Data  Gb  os_var.o [1]
OSTmrUpdateCnt          0x200024c4    0x4  Data  Gb  os_var.o [1]
OSTmrUpdateCtr          0x200024c8    0x4  Data  Gb  os_var.o [1]
OS_CPU_ExceptStkBase    0x20002468    0x4  Data  Gb  os_cpu_c.o [1]
OS_CPU_PendSVHandler    0x000028e3         Code  Gb  os_cpu_a.o [1]
OS_CPU_SysTickHandler   0x00000b43   0x2c  Code  Gb  os_cpu_c.o [1]
OS_CPU_SysTickInit      0x00000b6f   0x2c  Code  Gb  os_cpu_c.o [1]
OS_Dbg_Init             0x00002095  0x170  Code  Gb  os_dbg.o [1]
OS_IdleTask             0x000004db   0x2c  Code  Gb  os_core.o [1]
OS_IdleTaskInit         0x00000507   0x50  Code  Gb  os_core.o [1]
OS_MemDbgListAdd        0x00001c59   0x24  Code  Gb  os_mem.o [1]
OS_MemInit              0x00001c7d   0x12  Code  Gb  os_mem.o [1]
OS_MsgPoolCreate        0x00001ca1   0x40  Code  Gb  os_msg.o [1]
OS_MsgPoolInit          0x00001ce1   0x2c  Code  Gb  os_msg.o [1]
OS_MsgQFreeAll          0x00001d0d   0x44  Code  Gb  os_msg.o [1]
OS_MsgQInit             0x00001d51   0x14  Code  Gb  os_msg.o [1]
OS_MutexInit            0x00001d71   0x12  Code  Gb  os_mutex.o [1]
OS_Pend                 0x00000557   0x6c  Code  Gb  os_core.o [1]
OS_PendDataInit         0x000005c3   0x38  Code  Gb  os_core.o [1]
OS_PendDbgNameAdd       0x000005fb   0x42  Code  Gb  os_core.o [1]
OS_PendDbgNameRemove    0x0000063d   0x1e  Code  Gb  os_core.o [1]
OS_PendListInsertPrio   0x00000661   0x72  Code  Gb  os_core.o [1]
OS_PendListRemove       0x000006d3   0x2a  Code  Gb  os_core.o [1]
OS_PendListRemove1      0x000006fd   0x48  Code  Gb  os_core.o [1]
OS_Post                 0x00000745   0xc0  Code  Gb  os_core.o [1]
OS_Post1                0x00000805   0x28  Code  Gb  os_core.o [1]
OS_PrioGetHighest       0x00000bd9   0x20  Code  Gb  os_prio.o [1]
OS_PrioInit             0x00000bc5   0x14  Code  Gb  os_prio.o [1]
OS_PrioInsert           0x00000bf9   0x2c  Code  Gb  os_prio.o [1]
OS_PrioRemove           0x00000c25   0x2e  Code  Gb  os_prio.o [1]
OS_QInit                0x00001d8d   0x12  Code  Gb  os_q.o [1]
OS_RdyListInit          0x0000082d   0x2a  Code  Gb  os_core.o [1]
OS_RdyListInsert        0x00000857   0x28  Code  Gb  os_core.o [1]
OS_RdyListInsertHead    0x0000087f   0x3a  Code  Gb  os_core.o [1]
OS_RdyListInsertTail    0x000008b9   0x38  Code  Gb  os_core.o [1]
OS_RdyListRemove        0x000008f1   0x5c  Code  Gb  os_core.o [1]
OS_RecRlsTask           0x00001ac9   0x24  Code  Gb  OS_RecTask.o [1]
OS_RecTaskInit          0x000019a1   0x20  Code  Gb  OS_RecTask.o [1]
OS_RecTaskRdy           0x00000a03   0x20  Code  Gb  os_core.o [1]
OS_RecTreeUpdate        0x000019c1  0x106  Code  Gb  OS_RecTask.o [1]
OS_SchedLockTimeMeasStart
                        0x0000094d   0x14  Code  Gb  os_core.o [1]
OS_SchedLockTimeMeasStop
                        0x00000969   0x2e  Code  Gb  os_core.o [1]
OS_TaskBlock            0x000009b1   0x38  Code  Gb  os_core.o [1]
OS_TaskDbgListAdd       0x00000fdf   0x2c  Code  Gb  os_task.o [1]
OS_TaskDbgListRemove    0x0000100b   0x4a  Code  Gb  os_task.o [1]
OS_TaskInit             0x00001055   0x18  Code  Gb  os_task.o [1]
OS_TaskInitTCB          0x0000106d   0xa8  Code  Gb  os_task.o [1]
OS_TaskRdy              0x000009e9   0x1a  Code  Gb  os_core.o [1]
OS_TaskReturn           0x00001115   0x14  Code  Gb  os_task.o [1]
OS_TaskSemPost          0x00001129   0xd4  Code  Gb  os_task.o [1]
OS_TickListInit         0x000012bf   0x2e  Code  Gb  os_tick.o [1]
OS_TickListInsert       0x000012ed  0x128  Code  Gb  os_tick.o [1]
OS_TickListRemove       0x00001415   0x42  Code  Gb  os_tick.o [1]
OS_TickListUpdate       0x00001457  0x1e0  Code  Gb  os_tick.o [1]
OS_TickTask             0x00001225   0x26  Code  Gb  os_tick.o [1]
OS_TickTaskInit         0x0000124b   0x74  Code  Gb  os_tick.o [1]
OS_TmrInit              0x00001da9   0xde  Code  Gb  os_tmr.o [1]
OS_TmrLink              0x00001e87   0xd2  Code  Gb  os_tmr.o [1]
OS_TmrTask              0x00001fa9   0xac  Code  Gb  os_tmr.o [1]
OS_TmrUnlink            0x00001f59   0x4c  Code  Gb  os_tmr.o [1]
PWMGenConfigure         0x000045e5   0x3c  Code  Gb  pwm.o [1]
PWMGenEnable            0x00004643    0xe  Code  Gb  pwm.o [1]
PWMGenPeriodSet         0x00004621   0x22  Code  Gb  pwm.o [1]
PWMOutputInvert         0x000046ab   0x2c  Code  Gb  pwm.o [1]
PWMOutputState          0x0000467f   0x2c  Code  Gb  pwm.o [1]
PWMPulseWidthSet        0x00004651   0x2e  Code  Gb  pwm.o [1]
RecListPartitionPtr     0x20002474    0x4  Data  Gb  OS_RecTask.o [1]
RecPartitionPtr         0x20002470    0x4  Data  Gb  OS_RecTask.o [1]
Region$$Table$$Base     0x00004e50          --   Gb  - Linker created -
Region$$Table$$Limit    0x00004e60          --   Gb  - Linker created -
Right_tgt               0x200024e9    0x1  Data  Gb  app.o [1]
RoboTurn                0x00004a6d   0xc8  Code  Gb  app.o [1]
SchedListPartitionPtr   0x2000247c    0x4  Data  Gb  OS_Task_Scheduling.o [1]
SchedPartitionPtr       0x20002478    0x4  Data  Gb  OS_Task_Scheduling.o [1]
SysCtlClockGet          0x00003533  0x1e4  Code  Gb  sysctl.o [1]
SysCtlClockSet          0x000033d5  0x15e  Code  Gb  sysctl.o [1]
SysCtlDelay             0x000033cd    0x8  Code  Gb  sysctl.o [1]
SysCtlPWMClockSet       0x00003717   0x10  Code  Gb  sysctl.o [1]
SysCtlPeripheralDeepSleepDisable
                        0x000033a1   0x2c  Code  Gb  sysctl.o [1]
SysCtlPeripheralEnable  0x00003375   0x2c  Code  Gb  sysctl.o [1]
SysCtlPeripheralReset   0x00003309   0x6c  Code  Gb  sysctl.o [1]
__aeabi_memclr4         0x000032d5         Code  Gb  ABImemclr4.o [5]
__cmain                 0x00004e81         Code  Gb  cmain.o [5]
__data_GetMemChunk      0x000032dd   0x2c  Code  Gb  xgetmemchunk.o [3]
__data_GetMemChunk::start
                        0x200024d8    0x4  Data  Lc  xgetmemchunk.o [3]
__exit                  0x00004eb5   0x14  Code  Gb  exit.o [6]
__iar_Memset4_word      0x00004041         Code  Gb  ABImemset48.o [5]
__iar_Memset8_word      0x00004041         Code  Gb  ABImemset48.o [5]
__iar_data_init3        0x00004e29   0x28  Code  Gb  data_init.o [5]
__iar_program_start     0x00005001         Code  Gb  cstartup_M.o [5]
__iar_systems$$module {Abs}
                        0x00000001         Data  Gb  command line/config [2]
__iar_zero_init3        0x00004d05   0x40  Code  Gb  zero_init3.o [5]
__low_level_init        0x00004e9f    0x4  Code  Gb  low_level_init.o [3]
__no_free_malloc        0x00003189   0x40  Code  Gb  no_free_heap0.o [3]
__vector_table          0x00000000  0x11c  Data  Gb  app_vect.o [1]
_call_main              0x00004e8d         Code  Gb  cmain.o [5]
_exit                   0x00004ea9         Code  Gb  cexit.o [5]
_main                   0x00004e9b         Code  Gb  cmain.o [5]
createNode              0x00002459   0x20  Code  Gb  OS_Task_Scheduling.o [1]
createRecListPartition  0x00002a0d   0x44  Code  Gb  OS_RecTaskUtil.o [1]
createRecPartition      0x000029c9   0x44  Code  Gb  OS_RecTaskUtil.o [1]
createSchedListPartition
                        0x00002321   0x44  Code  Gb  OS_Task_Scheduling.o [1]
createSchedPartition    0x000022dd   0x44  Code  Gb  OS_Task_Scheduling.o [1]
create_rb_node          0x00002ac5   0x3a  Code  Gb  OS_RecTaskUtil.o [1]
deleteNode              0x00002509   0x80  Code  Gb  OS_Task_Scheduling.o [1]
exit                    0x00004ea3    0x4  Code  Gb  exit.o [3]
findHeapListNode        0x00002657   0x32  Code  Gb  OS_Task_Scheduling.o [1]
findNode                0x00002d89   0x32  Code  Gb  OS_RecTaskUtil.o [1]
g_pucRITInit            0x00004c6c   0x50  Data  Lc  bsp_display.o [1]
g_pucRow1               0x0000500c    0x8  Data  Lc  bsp_display.o [1]
g_pucRow2               0x00005014    0x8  Data  Lc  bsp_display.o [1]
g_pulDCGCRegs           0x00004fe8    0xc  Data  Lc  sysctl.o [1]
g_pulGPIOBaseAddrs      0x00004cbc   0x48  Data  Lc  gpio.o [1]
g_pulRCGCRegs           0x00004fdc    0xc  Data  Lc  sysctl.o [1]
g_pulSRCRRegs           0x00004fd0    0xc  Data  Lc  sysctl.o [1]
g_pulXtals              0x00004c10   0x5c  Data  Lc  sysctl.o [1]
g_ulDelay               0x2000244c    0x4  Data  Lc  bsp_display.o [1]
getMinNode              0x00002589   0x14  Code  Gb  OS_Task_Scheduling.o [1]
heap_insert             0x00002365   0xf4  Code  Gb  OS_Task_Scheduling.o [1]
heapify                 0x000024ab   0x5e  Code  Gb  OS_Task_Scheduling.o [1]
insertHeapListNode      0x0000259d   0xba  Code  Gb  OS_Task_Scheduling.o [1]
insertNode              0x00002dbb   0xe0  Code  Gb  OS_RecTaskUtil.o [1]
is_red                  0x00002aa1   0x12  Code  Gb  OS_RecTaskUtil.o [1]
leftTurn                0x00004931   0x26  Code  Lc  app.o [1]
leftTurnStk             0x20000e40  0x200  Data  Lc  app.o [1]
leftTurnTCB             0x20001f98   0x94  Data  Lc  app.o [1]
main                    0x000046d9   0x52  Code  Gb  app.o [1]
moveBackward            0x00004909   0x26  Code  Lc  app.o [1]
moveBackwardStk         0x20000c40  0x200  Data  Lc  app.o [1]
moveBackwardTCB         0x20001f04   0x94  Data  Lc  app.o [1]
moveForward             0x000048e1   0x26  Code  Lc  app.o [1]
moveForwardStk          0x20000a40  0x200  Data  Lc  app.o [1]
moveForwardTCB          0x20001e70   0x94  Data  Lc  app.o [1]
pushTaskToReady         0x0000197f   0x22  Code  Gb  OS_RecTask.o [1]
pushTasksToReady        0x00001963   0x1c  Code  Gb  OS_RecTask.o [1]
qs                      0x200024d4    0x4  Data  Lc  no_free_heap0.o [3]
rb_node_double_left_rotate
                        0x00002a8d   0x14  Code  Gb  OS_RecTaskUtil.o [1]
rb_node_double_right_rotate
                        0x00002a79   0x14  Code  Gb  OS_RecTaskUtil.o [1]
rb_node_left_rotate     0x00002a65   0x14  Code  Gb  OS_RecTaskUtil.o [1]
rb_node_right_rotate    0x00002a51   0x14  Code  Gb  OS_RecTaskUtil.o [1]
rb_remove               0x00002fcd  0x1bc  Code  Gb  OS_RecTaskUtil.o [1]
rb_tree_insert          0x00002d0d   0x26  Code  Gb  OS_RecTaskUtil.o [1]
rb_tree_insert_node     0x00002b39   0xec  Code  Gb  OS_RecTaskUtil.o [1]
rb_tree_reinsert        0x00002d33   0x24  Code  Gb  OS_RecTaskUtil.o [1]
rb_tree_reinsert_node   0x00002c25   0xe8  Code  Gb  OS_RecTaskUtil.o [1]
rb_tree_remove_min      0x00002d57   0x24  Code  Gb  OS_RecTaskUtil.o [1]
recreate_rb_node        0x00002aff   0x3a  Code  Gb  OS_RecTaskUtil.o [1]
reinsertNode            0x00002eb1   0x86  Code  Gb  OS_RecTaskUtil.o [1]
release_rb_node         0x00002ab3   0x12  Code  Gb  OS_RecTaskUtil.o [1]
removeHeapListNode      0x00002689   0x94  Code  Gb  OS_Task_Scheduling.o [1]
removeNode              0x00002f37   0x6e  Code  Gb  OS_RecTaskUtil.o [1]
rightTurn               0x00004959   0x26  Code  Lc  app.o [1]
rightTurnStk            0x20001040  0x200  Data  Lc  app.o [1]
rightTurnTCB            0x2000202c   0x94  Data  Lc  app.o [1]
schedEnable             0x20002488    0x4  Data  Gb  OS_Task_Scheduling.o [1]
secondCtr               0x20002484    0x4  Data  Gb  OS_Task_Scheduling.o [1]
swap                    0x00002479   0x32  Code  Gb  OS_Task_Scheduling.o [1]
tickCtr                 0x20002480    0x4  Data  Gb  OS_Task_Scheduling.o [1]
treeMinSearch           0x00002fa5   0x28  Code  Gb  OS_RecTaskUtil.o [1]


[1] = C:\Users\davin\Downloads\CE4053 phase 1 works\Micrium\Software\EvalBoards\TI\LM3S9B92-EVALBOT\IAR\uCOS-III-CE4053_PG\Flash\Obj
[2] = command line
[3] = dl7M_tln.a
[4] = m7M_tl.a
[5] = rt7M_tl.a
[6] = shb_l.a

  19 370 bytes of readonly  code memory
   1 332 bytes of readonly  data memory
  27 890 bytes of readwrite data memory

Errors: none
Warnings: none
